:020000040800F2
:1000000048070020CD010008E90300089503000817
:10001000E5030008750200086B06000800000000F8
:100020000000000000000000000000000D040008B7
:100030007902000800000000EB0300082105000819
:10004000E7010008E7010008E7010008E7010008F0
:10005000E7010008E7010008E7010008E7010008E0
:10006000E7010008E7010008E7010008E7010008D0
:10007000E7010008E7010008E7010008E7010008C0
:10008000E7010008E7010008E7010008E7010008B0
:10009000E7010008E7010008E7010008E7010008A0
:1000A000E7010008E7010008E7010008E701000890
:1000B000E7010008E7010008E7010008E701000880
:1000C000E7010008E7010008E7010008E701000870
:1000D000E701000885050008E7010008E7010008BE
:1000E000E7010008E7010008E7010008E701000850
:1000F000E7010008E7010008E7010008E701000840
:10010000E7010008E7010008E7010008E70100082F
:10011000E7010008E7010008E7010008E70100081F
:10012000E7010008E7010008E7010008E70100080F
:1001300000F002F800F03AF80AA090E8000C8244BF
:100140008344AAF10107DA4501D100F02FF8AFF29C
:10015000090EBAE80F0013F0010F18BFFB1A43F0A5
:1001600001031847E005000000060000103A24BF14
:1001700078C878C1FAD8520724BF30C830C144BF0C
:1001800004680C607047000000230024002500264E
:10019000103A28BF78C1FBD8520728BF30C148BFEA
:1001A0000B6070471FB51FBD10B510BD00F033F8D0
:1001B0001146FFF7F7FF00F0A5FA00F051F803B47D
:1001C000FFF7F2FF03BC00F052FA00000948804735
:1001D00009480047FEE7FEE7FEE7FEE7FEE7FEE729
:1001E000FEE7FEE7FEE7FEE704480549054A064B41
:1001F0007047000025050008310100084801002073
:10020000480700204803002048030020704770473B
:10021000704770477047754600F028F8AE460500F5
:100220006946534620F00700854618B020B5FFF711
:10023000DBFFBDE820404FF000064FF000074FF015
:1002400000084FF0000B21F00701AC46ACE8C009F4
:10025000ACE8C009ACE8C009ACE8C0098D467047FD
:100260000446AFF300802046FFF7A9FF004870471F
:10027000E800002000BFFEE770472DE9F04102468C
:1002800000250026002000230024002791F803C049
:100290000CF00F0591F803C00CF0100CBCF1000F2E
:1002A00003D091F802C04CEA050591F800C0BCF1FA
:1002B000000F31D0146800202BE04FF0010C0CFA35
:1002C00000F3B1F800C00CEA03069E4220D183007F
:1002D0004FF00F0C0CFA03F7BC4305FA03FC4CEA91
:1002E000040491F803C0BCF1280F06D14FF0010CB3
:1002F0000CFA00FCC2F814C00AE091F803C0BCF18B
:10030000480F05D14FF0010C0CFA00FCC2F810C0E8
:10031000401C0828D1D31460B1F800C0BCF1FF0F15
:1003200034DD546800202EE000F1080C4FF0010885
:1003300008FA0CF3B1F800C00CEA03069E4221D182
:1003400083004FF00F0C0CFA03F7BC4305FA03FCD3
:100350004CEA040491F803C0BCF1280F05D100F168
:10036000080C08FA0CF8C2F8148091F803C0BCF12C
:10037000480F07D100F1080C4FF0010808FA0CF8FB
:10038000C2F81080401C0828CED35460BDE8F0812C
:100390000161704700BFFEE708B50121482000F069
:1003A00025F82020ADF8000010208DF80300032070
:1003B0008DF8020069460948FFF75FFF20210748D2
:1003C000FFF7E6FF2020ADF8000069460448FFF77C
:1003D00054FF20210248FFF7DBFF08BD000C01405D
:1003E0000018014000BFFEE77047704729B1064A78
:1003F00092690243044B9A6104E0034A9269824382
:10040000014B9A617047000000100240704710B520
:1004100000F002F810BD00000CB500200190009023
:100420003348006840F480303149086000BF3048EC
:10043000006800F4003000900198401C0190009882
:1004400018B90198B0F5A06FF1D12948006800F4FF
:10045000003010B10120009001E0002000900098D1
:10046000012843D12348006840F01000214908606A
:100470000846006820F0030008600846006840F065
:10048000020008601A4840681949486008464068F8
:1004900048600846406840F480604860084640680C
:1004A00020F47C1048600846406840F4E81048603A
:1004B0000846006840F08070086000BF0C48006883
:1004C00000F000700028F9D00948406820F00300CF
:1004D000074948600846406840F00200486000BF95
:1004E0000348406800F00C000828F9D10CBD00005A
:1004F0000010024000200240042808D14FF0E02103
:10050000096941F004014FF0E022116107E04FF06A
:10051000E021096921F004014FF0E02211617047E8
:100520007047000010B51348006840F00100114901
:10053000086008464068104908400E49486008466F
:1005400000680E4908400B4908600846006820F41E
:10055000802008600846406820F4FE0048604FF4A0
:100560001F008860FFF753FF4FF0006004490860E8
:1005700010BD0000001002400000FFF8FFFFF6FE73
:1005800008ED00E010B540F225511D4800F03EF89E
:1005900010B31B4800F064F8C4B21A48008800F495
:1005A0000040C8B91748008800F4804060B10A2CA8
:1005B00003D000201349088020E01248008840F44E
:1005C00000401049088019E00D2C06D10D48008824
:1005D00040F480400B49088010E00A480088C0F3CE
:1005E0000D0009490C5407480088401C0549088043
:1005F00008460088C72801DD0020088010BD0000E3
:10060000003801401C0000202000002070B5024688
:10061000002400230025002040F66A16B14200D1D4
:1006200000BFC1F3421501F01F03012606FA03F3D0
:10063000012D02D19689334006E0022D02D1168A9F
:10064000334001E0968A33400C12012606FA04F486
:100650001688344013B10CB1012000E0002070BDB9
:1006600001468888C0F30800704700BFFEE700BF5E
:100670007047000010B56FF00400FFF73DFF0A4817
:1006800000680A49B0FBF1F0094908700846007893
:1006900000EB4001C1EBC0104FF6FF7101EAC00052
:1006A0000449088010BD00000000002000127A00FC
:1006B00014000020160000200146114A12884A4307
:1006C0004FF0E0235A6100229A611A46126942F003
:1006D00001021A6100BF4FF0E022106900F0010230
:1006E0001AB100F48032002AF5D04FF0E0221269EE
:1006F00022F001024FF0E0231A6100229A61704754
:1007000016000020FFF7B6FFFFF746FE15E00020B9
:100710000A49086001200A49C1F894014FF4967013
:10072000FFF7CAFF01200549086000200449C1F80D
:1007300094014FF49670FFF7BFFFE8E794812142E0
:100740000000234264070008000000202000000091
:100750006C01000884070008200000202807000022
:100760008801000800A24A04000000000000000008
:100770000102030406070809000000000000000051
:040780000000000075
:04000005080001CD21
:00000001FF
